{
  "contractName": "CarBooking",
  "abi": [
    {
      "inputs": [],
      "payable": false,
      "stateMutability": "nonpayable",
      "type": "constructor"
    },
    {
      "constant": true,
      "inputs": [],
      "name": "bookingCount",
      "outputs": [
        {
          "internalType": "uint256",
          "name": "",
          "type": "uint256"
        }
      ],
      "payable": false,
      "stateMutability": "view",
      "type": "function"
    },
    {
      "constant": true,
      "inputs": [
        {
          "internalType": "uint256",
          "name": "",
          "type": "uint256"
        }
      ],
      "name": "bookings",
      "outputs": [
        {
          "internalType": "uint256",
          "name": "_id",
          "type": "uint256"
        },
        {
          "internalType": "string",
          "name": "_carOwner",
          "type": "string"
        },
        {
          "internalType": "string",
          "name": "_user",
          "type": "string"
        },
        {
          "internalType": "string",
          "name": "_rentStart",
          "type": "string"
        },
        {
          "internalType": "string",
          "name": "_rentEnd",
          "type": "string"
        },
        {
          "internalType": "uint256",
          "name": "_rentCost",
          "type": "uint256"
        },
        {
          "internalType": "bool",
          "name": "_closed",
          "type": "bool"
        }
      ],
      "payable": false,
      "stateMutability": "view",
      "type": "function"
    },
    {
      "constant": false,
      "inputs": [
        {
          "internalType": "string",
          "name": "_carOwner",
          "type": "string"
        },
        {
          "internalType": "string",
          "name": "_user",
          "type": "string"
        },
        {
          "internalType": "string",
          "name": "_rentStart",
          "type": "string"
        },
        {
          "internalType": "string",
          "name": "_rentEnd",
          "type": "string"
        },
        {
          "internalType": "uint256",
          "name": "_rentCost",
          "type": "uint256"
        }
      ],
      "name": "confirmBooking",
      "outputs": [],
      "payable": false,
      "stateMutability": "nonpayable",
      "type": "function"
    },
    {
      "constant": true,
      "inputs": [],
      "name": "getBookings",
      "outputs": [
        {
          "components": [
            {
              "internalType": "uint256",
              "name": "_id",
              "type": "uint256"
            },
            {
              "internalType": "string",
              "name": "_carOwner",
              "type": "string"
            },
            {
              "internalType": "string",
              "name": "_user",
              "type": "string"
            },
            {
              "internalType": "string",
              "name": "_rentStart",
              "type": "string"
            },
            {
              "internalType": "string",
              "name": "_rentEnd",
              "type": "string"
            },
            {
              "internalType": "uint256",
              "name": "_rentCost",
              "type": "uint256"
            },
            {
              "internalType": "bool",
              "name": "_closed",
              "type": "bool"
            }
          ],
          "internalType": "struct CarBooking.Booking[]",
          "name": "",
          "type": "tuple[]"
        }
      ],
      "payable": false,
      "stateMutability": "view",
      "type": "function"
    },
    {
      "constant": false,
      "inputs": [
        {
          "internalType": "uint256",
          "name": "id",
          "type": "uint256"
        }
      ],
      "name": "closeBooking",
      "outputs": [],
      "payable": false,
      "stateMutability": "nonpayable",
      "type": "function"
    }
  ],
  "bytecode": "0x60806040526000805534801561001457600080fd5b5033600260006101000a81548173ffffffffffffffffffffffffffffffffffffffff021916908373ffffffffffffffffffffffffffffffffffffffff160217905550610ed7806100656000396000f3fe608060405234801561001057600080fd5b50600436106100575760003560e01c80631dab301e1461005c578063506c244e146100925780635b085fa7146100ae5780636d759172146100ca578063955c8420146100e8575b600080fd5b61007660048036036100719190810190610a7c565b610106565b6040516100899796959493929190610cca565b60405180910390f35b6100ac60048036036100a79190810190610a7c565b6103b5565b005b6100c860048036036100c391908101906109a5565b6103e6565b005b6100d26104ec565b6040516100df9190610caf565b60405180910390f35b6100f06104f2565b6040516100fd9190610c8d565b60405180910390f35b6001602052806000526040600020600091509050806000015490806001018054600181600116156101000203166002900480601f0160208091040260200160405190810160405280929190818152602001828054600181600116156101000203166002900480156101b85780601f1061018d576101008083540402835291602001916101b8565b820191906000526020600020905b81548152906001019060200180831161019b57829003601f168201915b505050505090806002018054600181600116156101000203166002900480601f0160208091040260200160405190810160405280929190818152602001828054600181600116156101000203166002900480156102565780601f1061022b57610100808354040283529160200191610256565b820191906000526020600020905b81548152906001019060200180831161023957829003601f168201915b505050505090806003018054600181600116156101000203166002900480601f0160208091040260200160405190810160405280929190818152602001828054600181600116156101000203166002900480156102f45780601f106102c9576101008083540402835291602001916102f4565b820191906000526020600020905b8154815290600101906020018083116102d757829003601f168201915b505050505090806004018054600181600116156101000203166002900480601f0160208091040260200160405190810160405280929190818152602001828054600181600116156101000203166002900480156103925780601f1061036757610100808354040283529160200191610392565b820191906000526020600020905b81548152906001019060200180831161037557829003601f168201915b5050505050908060050154908060060160009054906101000a900460ff16905087565b600180600083815260200190815260200160002060060160006101000a81548160ff02191690831515021790555050565b6103ee610845565b6040518060e001604052806000548152602001868152602001858152602001848152602001838152602001828152602001600015158152506001600080548152602001908152602001600020600082015181600001556020820151816001019080519060200190610460929190610858565b50604082015181600201908051906020019061047d929190610858565b50606082015181600301908051906020019061049a929190610858565b5060808201518160040190805190602001906104b7929190610858565b5060a0820151816005015560c08201518160060160006101000a81548160ff0219169083151502179055509050505050505050565b60005481565b60608060005460405190808252806020026020018201604052801561053157816020015b61051e6108d8565b8152602001906001900390816105165790505b50905060008090505b60005481101561083d57600160008281526020019081526020016000206040518060e001604052908160008201548152602001600182018054600181600116156101000203166002900480601f0160208091040260200160405190810160405280929190818152602001828054600181600116156101000203166002900480156106055780601f106105da57610100808354040283529160200191610605565b820191906000526020600020905b8154815290600101906020018083116105e857829003601f168201915b50505050508152602001600282018054600181600116156101000203166002900480601f0160208091040260200160405190810160405280929190818152602001828054600181600116156101000203166002900480156106a75780601f1061067c576101008083540402835291602001916106a7565b820191906000526020600020905b81548152906001019060200180831161068a57829003601f168201915b50505050508152602001600382018054600181600116156101000203166002900480601f0160208091040260200160405190810160405280929190818152602001828054600181600116156101000203166002900480156107495780601f1061071e57610100808354040283529160200191610749565b820191906000526020600020905b81548152906001019060200180831161072c57829003601f168201915b50505050508152602001600482018054600181600116156101000203166002900480601f0160208091040260200160405190810160405280929190818152602001828054600181600116156101000203166002900480156107eb5780601f106107c0576101008083540402835291602001916107eb565b820191906000526020600020905b8154815290600101906020018083116107ce57829003601f168201915b50505050508152602001600582015481526020016006820160009054906101000a900460ff16151515158152505082828151811061082557fe5b6020026020010181905250808060010191505061053a565b508091505090565b6000808154809291906001019190505550565b828054600181600116156101000203166002900490600052602060002090601f016020900481019282601f1061089957805160ff19168380011785556108c7565b828001600101855582156108c7579182015b828111156108c65782518255916020019190600101906108ab565b5b5090506108d49190610917565b5090565b6040518060e001604052806000815260200160608152602001606081526020016060815260200160608152602001600081526020016000151581525090565b61093991905b8082111561093557600081600090555060010161091d565b5090565b90565b600082601f83011261094d57600080fd5b813561096061095b82610d82565b610d55565b9150808252602083016020830185838301111561097c57600080fd5b610987838284610e2a565b50505092915050565b60008135905061099f81610e7d565b92915050565b600080600080600060a086880312156109bd57600080fd5b600086013567ffffffffffffffff8111156109d757600080fd5b6109e38882890161093c565b955050602086013567ffffffffffffffff811115610a0057600080fd5b610a0c8882890161093c565b945050604086013567ffffffffffffffff811115610a2957600080fd5b610a358882890161093c565b935050606086013567ffffffffffffffff811115610a5257600080fd5b610a5e8882890161093c565b9250506080610a6f88828901610990565b9150509295509295909350565b600060208284031215610a8e57600080fd5b6000610a9c84828501610990565b91505092915050565b6000610ab18383610bbe565b905092915050565b6000610ac482610dbe565b610ace8185610de1565b935083602082028501610ae085610dae565b8060005b85811015610b1c5784840389528151610afd8582610aa5565b9450610b0883610dd4565b925060208a01995050600181019050610ae4565b50829750879550505050505092915050565b610b3781610e14565b82525050565b610b4681610e14565b82525050565b6000610b5782610dc9565b610b618185610df2565b9350610b71818560208601610e39565b610b7a81610e6c565b840191505092915050565b6000610b9082610dc9565b610b9a8185610e03565b9350610baa818560208601610e39565b610bb381610e6c565b840191505092915050565b600060e083016000830151610bd66000860182610c6f565b5060208301518482036020860152610bee8282610b4c565b91505060408301518482036040860152610c088282610b4c565b91505060608301518482036060860152610c228282610b4c565b91505060808301518482036080860152610c3c8282610b4c565b91505060a0830151610c5160a0860182610c6f565b5060c0830151610c6460c0860182610b2e565b508091505092915050565b610c7881610e20565b82525050565b610c8781610e20565b82525050565b60006020820190508181036000830152610ca78184610ab9565b905092915050565b6000602082019050610cc46000830184610c7e565b92915050565b600060e082019050610cdf600083018a610c7e565b8181036020830152610cf18189610b85565b90508181036040830152610d058188610b85565b90508181036060830152610d198187610b85565b90508181036080830152610d2d8186610b85565b9050610d3c60a0830185610c7e565b610d4960c0830184610b3d565b98975050505050505050565b6000604051905081810181811067ffffffffffffffff82111715610d7857600080fd5b8060405250919050565b600067ffffffffffffffff821115610d9957600080fd5b601f19601f8301169050602081019050919050565b6000819050602082019050919050565b600081519050919050565b600081519050919050565b6000602082019050919050565b600082825260208201905092915050565b600082825260208201905092915050565b600082825260208201905092915050565b60008115159050919050565b6000819050919050565b82818337600083830152505050565b60005b83811015610e57578082015181840152602081019050610e3c565b83811115610e66576000848401525b50505050565b6000601f19601f8301169050919050565b610e8681610e20565b8114610e9157600080fd5b5056fea365627a7a7231582062d4600fcb46bdf34560e7f9fac5e78e764a11fa2457fc34944608d3abde56fe6c6578706572696d656e74616cf564736f6c63430005100040",
  "source": "// SPDX-License-Identifier: UNLICENSED\r\npragma solidity >=0.4.22 <0.8.0;\r\n// used for mapping -> array ( getBookings() )\r\npragma experimental ABIEncoderV2;\r\n\r\ncontract CarBooking{\r\n    uint256 public bookingCount = 0;\r\n    mapping(uint => Booking) public bookings;\r\n    address private owner;\r\n    \r\n    struct Booking {\r\n        uint _id;\r\n        string _carOwner;\r\n        string _user;\r\n        string _rentStart;\r\n        string _rentEnd;\r\n        uint _rentCost;\r\n        bool _closed;\r\n    }\r\n    \r\n    constructor() public{\r\n        owner = msg.sender; // owner is contract deployer\r\n    }\r\n    \r\n    function confirmBooking(\r\n        string memory _carOwner,\r\n        string memory _user,\r\n        string memory _rentStart,\r\n        string memory _rentEnd,\r\n        uint _rentCost\r\n        ) \r\n        public {\r\n        incrementCount();\r\n        bookings[bookingCount] = Booking(bookingCount, _carOwner, _user, _rentStart, _rentEnd, _rentCost, false);\r\n    }\r\n    \r\n    function incrementCount() internal {\r\n        bookingCount++;\r\n    }\r\n    \r\n    function getBookings() \r\n        public view\r\n        returns (Booking[] memory)\r\n    {\r\n        Booking[] memory bookings_array = new Booking[](bookingCount);\r\n        for (uint i = 0; i < bookingCount; i++) {\r\n            bookings_array[i] = bookings[i];\r\n        }\r\n        \r\n        return bookings_array;\r\n    }\r\n\r\n    function closeBooking(uint id)\r\n        public\r\n        {\r\n        bookings[id]._closed = true;\r\n    }\r\n}",
  "sourcePath": "A:/VKZV/shared-mobility/contracts/CarBooking.sol",
  "compiler": {
    "name": "solc",
    "version": "0.5.16+commit.9c3226ce.Emscripten.clang"
  },
  "schemaVersion": "3.3.2",
  "updatedAt": "2020-12-17T10:49:47.026Z",
  "networkType": "ethereum",
  "devdoc": {
    "methods": {}
  },
  "userdoc": {
    "methods": {}
  }
}