{
  "contractName": "CarBooking",
  "abi": [
    {
      "inputs": [],
      "payable": false,
      "stateMutability": "nonpayable",
      "type": "constructor"
    },
    {
      "constant": true,
      "inputs": [],
      "name": "bookingCount",
      "outputs": [
        {
          "internalType": "uint256",
          "name": "",
          "type": "uint256"
        }
      ],
      "payable": false,
      "stateMutability": "view",
      "type": "function"
    },
    {
      "constant": true,
      "inputs": [
        {
          "internalType": "uint256",
          "name": "",
          "type": "uint256"
        }
      ],
      "name": "bookings",
      "outputs": [
        {
          "internalType": "uint256",
          "name": "_id",
          "type": "uint256"
        },
        {
          "internalType": "uint256",
          "name": "_carId",
          "type": "uint256"
        },
        {
          "internalType": "string",
          "name": "_carOwner",
          "type": "string"
        },
        {
          "internalType": "string",
          "name": "_user",
          "type": "string"
        },
        {
          "internalType": "string",
          "name": "_rentStart",
          "type": "string"
        },
        {
          "internalType": "string",
          "name": "_rentEnd",
          "type": "string"
        },
        {
          "internalType": "uint256",
          "name": "_rentCost",
          "type": "uint256"
        },
        {
          "internalType": "bool",
          "name": "_opened",
          "type": "bool"
        }
      ],
      "payable": false,
      "stateMutability": "view",
      "type": "function"
    },
    {
      "constant": false,
      "inputs": [
        {
          "internalType": "uint256",
          "name": "_carId",
          "type": "uint256"
        },
        {
          "internalType": "string",
          "name": "_carOwner",
          "type": "string"
        },
        {
          "internalType": "string",
          "name": "_user",
          "type": "string"
        },
        {
          "internalType": "string",
          "name": "_rentStart",
          "type": "string"
        },
        {
          "internalType": "string",
          "name": "_rentEnd",
          "type": "string"
        },
        {
          "internalType": "uint256",
          "name": "_rentCost",
          "type": "uint256"
        }
      ],
      "name": "confirmBooking",
      "outputs": [],
      "payable": false,
      "stateMutability": "nonpayable",
      "type": "function"
    },
    {
      "constant": true,
      "inputs": [],
      "name": "getBookings",
      "outputs": [
        {
          "components": [
            {
              "internalType": "uint256",
              "name": "_id",
              "type": "uint256"
            },
            {
              "internalType": "uint256",
              "name": "_carId",
              "type": "uint256"
            },
            {
              "internalType": "string",
              "name": "_carOwner",
              "type": "string"
            },
            {
              "internalType": "string",
              "name": "_user",
              "type": "string"
            },
            {
              "internalType": "string",
              "name": "_rentStart",
              "type": "string"
            },
            {
              "internalType": "string",
              "name": "_rentEnd",
              "type": "string"
            },
            {
              "internalType": "uint256",
              "name": "_rentCost",
              "type": "uint256"
            },
            {
              "internalType": "bool",
              "name": "_opened",
              "type": "bool"
            }
          ],
          "internalType": "struct CarBooking.Booking[]",
          "name": "",
          "type": "tuple[]"
        }
      ],
      "payable": false,
      "stateMutability": "view",
      "type": "function"
    },
    {
      "constant": false,
      "inputs": [
        {
          "internalType": "uint256",
          "name": "id",
          "type": "uint256"
        }
      ],
      "name": "closeBooking",
      "outputs": [],
      "payable": false,
      "stateMutability": "nonpayable",
      "type": "function"
    }
  ],
  "bytecode": "0x60806040526000805534801561001457600080fd5b5033600260006101000a81548173ffffffffffffffffffffffffffffffffffffffff021916908373ffffffffffffffffffffffffffffffffffffffff160217905550610f39806100656000396000f3fe608060405234801561001057600080fd5b50600436106100575760003560e01c80631dab301e1461005c5780633d1da57614610093578063506c244e146100af5780636d759172146100cb578063955c8420146100e9575b600080fd5b610076600480360361007191908101906109d2565b610107565b60405161008a989796959493929190610d1d565b60405180910390f35b6100ad60048036036100a891908101906109fb565b6103bc565b005b6100c960048036036100c491908101906109d2565b6104d4565b005b6100d3610506565b6040516100e09190610d02565b60405180910390f35b6100f161050c565b6040516100fe9190610ce0565b60405180910390f35b6001602052806000526040600020600091509050806000015490806001015490806002018054600181600116156101000203166002900480601f0160208091040260200160405190810160405280929190818152602001828054600181600116156101000203166002900480156101bf5780601f10610194576101008083540402835291602001916101bf565b820191906000526020600020905b8154815290600101906020018083116101a257829003601f168201915b505050505090806003018054600181600116156101000203166002900480601f01602080910402602001604051908101604052809291908181526020018280546001816001161561010002031660029004801561025d5780601f106102325761010080835404028352916020019161025d565b820191906000526020600020905b81548152906001019060200180831161024057829003601f168201915b505050505090806004018054600181600116156101000203166002900480601f0160208091040260200160405190810160405280929190818152602001828054600181600116156101000203166002900480156102fb5780601f106102d0576101008083540402835291602001916102fb565b820191906000526020600020905b8154815290600101906020018083116102de57829003601f168201915b505050505090806005018054600181600116156101000203166002900480601f0160208091040260200160405190810160405280929190818152602001828054600181600116156101000203166002900480156103995780601f1061036e57610100808354040283529160200191610399565b820191906000526020600020905b81548152906001019060200180831161037c57829003601f168201915b5050505050908060060154908060070160009054906101000a900460ff16905088565b6103c461086a565b60405180610100016040528060005481526020018781526020018681526020018581526020018481526020018381526020018281526020016001151581525060016000805481526020019081526020016000206000820151816000015560208201518160010155604082015181600201908051906020019061044792919061087d565b50606082015181600301908051906020019061046492919061087d565b50608082015181600401908051906020019061048192919061087d565b5060a082015181600501908051906020019061049e92919061087d565b5060c0820151816006015560e08201518160070160006101000a81548160ff021916908315150217905550905050505050505050565b60006001600083815260200190815260200160002060070160006101000a81548160ff02191690831515021790555050565b60005481565b60608060005460405190808252806020026020018201604052801561054b57816020015b6105386108fd565b8152602001906001900390816105305790505b50905060008090505b6000548110156108625760016000828152602001908152602001600020604051806101000160405290816000820154815260200160018201548152602001600282018054600181600116156101000203166002900480601f01602080910402602001604051908101604052809291908181526020018280546001816001161561010002031660029004801561062a5780601f106105ff5761010080835404028352916020019161062a565b820191906000526020600020905b81548152906001019060200180831161060d57829003601f168201915b50505050508152602001600382018054600181600116156101000203166002900480601f0160208091040260200160405190810160405280929190818152602001828054600181600116156101000203166002900480156106cc5780601f106106a1576101008083540402835291602001916106cc565b820191906000526020600020905b8154815290600101906020018083116106af57829003601f168201915b50505050508152602001600482018054600181600116156101000203166002900480601f01602080910402602001604051908101604052809291908181526020018280546001816001161561010002031660029004801561076e5780601f106107435761010080835404028352916020019161076e565b820191906000526020600020905b81548152906001019060200180831161075157829003601f168201915b50505050508152602001600582018054600181600116156101000203166002900480601f0160208091040260200160405190810160405280929190818152602001828054600181600116156101000203166002900480156108105780601f106107e557610100808354040283529160200191610810565b820191906000526020600020905b8154815290600101906020018083116107f357829003601f168201915b50505050508152602001600682015481526020016007820160009054906101000a900460ff16151515158152505082828151811061084a57fe5b60200260200101819052508080600101915050610554565b508091505090565b6000808154809291906001019190505550565b828054600181600116156101000203166002900490600052602060002090601f016020900481019282601f106108be57805160ff19168380011785556108ec565b828001600101855582156108ec579182015b828111156108eb5782518255916020019190600101906108d0565b5b5090506108f99190610944565b5090565b604051806101000160405280600081526020016000815260200160608152602001606081526020016060815260200160608152602001600081526020016000151581525090565b61096691905b8082111561096257600081600090555060010161094a565b5090565b90565b600082601f83011261097a57600080fd5b813561098d61098882610de4565b610db7565b915080825260208301602083018583830111156109a957600080fd5b6109b4838284610e8c565b50505092915050565b6000813590506109cc81610edf565b92915050565b6000602082840312156109e457600080fd5b60006109f2848285016109bd565b91505092915050565b60008060008060008060c08789031215610a1457600080fd5b6000610a2289828a016109bd565b965050602087013567ffffffffffffffff811115610a3f57600080fd5b610a4b89828a01610969565b955050604087013567ffffffffffffffff811115610a6857600080fd5b610a7489828a01610969565b945050606087013567ffffffffffffffff811115610a9157600080fd5b610a9d89828a01610969565b935050608087013567ffffffffffffffff811115610aba57600080fd5b610ac689828a01610969565b92505060a0610ad789828a016109bd565b9150509295509295509295565b6000610af08383610bfd565b905092915050565b6000610b0382610e20565b610b0d8185610e43565b935083602082028501610b1f85610e10565b8060005b85811015610b5b5784840389528151610b3c8582610ae4565b9450610b4783610e36565b925060208a01995050600181019050610b23565b50829750879550505050505092915050565b610b7681610e76565b82525050565b610b8581610e76565b82525050565b6000610b9682610e2b565b610ba08185610e54565b9350610bb0818560208601610e9b565b610bb981610ece565b840191505092915050565b6000610bcf82610e2b565b610bd98185610e65565b9350610be9818560208601610e9b565b610bf281610ece565b840191505092915050565b600061010083016000830151610c166000860182610cc2565b506020830151610c296020860182610cc2565b5060408301518482036040860152610c418282610b8b565b91505060608301518482036060860152610c5b8282610b8b565b91505060808301518482036080860152610c758282610b8b565b91505060a083015184820360a0860152610c8f8282610b8b565b91505060c0830151610ca460c0860182610cc2565b5060e0830151610cb760e0860182610b6d565b508091505092915050565b610ccb81610e82565b82525050565b610cda81610e82565b82525050565b60006020820190508181036000830152610cfa8184610af8565b905092915050565b6000602082019050610d176000830184610cd1565b92915050565b600061010082019050610d33600083018b610cd1565b610d40602083018a610cd1565b8181036040830152610d528189610bc4565b90508181036060830152610d668188610bc4565b90508181036080830152610d7a8187610bc4565b905081810360a0830152610d8e8186610bc4565b9050610d9d60c0830185610cd1565b610daa60e0830184610b7c565b9998505050505050505050565b6000604051905081810181811067ffffffffffffffff82111715610dda57600080fd5b8060405250919050565b600067ffffffffffffffff821115610dfb57600080fd5b601f19601f8301169050602081019050919050565b6000819050602082019050919050565b600081519050919050565b600081519050919050565b6000602082019050919050565b600082825260208201905092915050565b600082825260208201905092915050565b600082825260208201905092915050565b60008115159050919050565b6000819050919050565b82818337600083830152505050565b60005b83811015610eb9578082015181840152602081019050610e9e565b83811115610ec8576000848401525b50505050565b6000601f19601f8301169050919050565b610ee881610e82565b8114610ef357600080fd5b5056fea365627a7a72315820f61ea658ad0ff6e7333553f77b8bc79135af252146806c73737126651bf5cc336c6578706572696d656e74616cf564736f6c63430005100040",
  "source": "// SPDX-License-Identifier: UNLICENSED\r\npragma solidity >=0.4.22 <0.8.0;\r\n// used for mapping -> array ( getBookings() )\r\npragma experimental ABIEncoderV2;\r\n\r\ncontract CarBooking{\r\n    uint256 public bookingCount = 0;\r\n    mapping(uint => Booking) public bookings;\r\n    address private owner;\r\n    \r\n    struct Booking {\r\n        uint _id;\r\n        uint _carId;\r\n        string _carOwner;\r\n        string _user;\r\n        string _rentStart;\r\n        string _rentEnd;\r\n        uint _rentCost;\r\n        bool _opened;\r\n    }\r\n    \r\n    constructor() public{\r\n        owner = msg.sender; // owner is contract deployer\r\n    }\r\n    \r\n    function confirmBooking(\r\n        uint _carId,\r\n        string memory _carOwner,\r\n        string memory _user,\r\n        string memory _rentStart,\r\n        string memory _rentEnd,\r\n        uint _rentCost\r\n        ) \r\n        public {\r\n        incrementCount();\r\n        bookings[bookingCount] = Booking(bookingCount, _carId, _carOwner, _user, _rentStart, _rentEnd, _rentCost, true);\r\n    }\r\n    \r\n    function incrementCount() internal {\r\n        bookingCount++;\r\n    }\r\n    \r\n    function getBookings() \r\n        public view\r\n        returns (Booking[] memory)\r\n    {\r\n        Booking[] memory bookings_array = new Booking[](bookingCount);\r\n        for (uint i = 0; i < bookingCount; i++) {\r\n            bookings_array[i] = bookings[i];\r\n        }\r\n        \r\n        return bookings_array;\r\n    }\r\n\r\n    function closeBooking(uint id)\r\n        public\r\n        {\r\n        bookings[id]._opened = false;\r\n    }\r\n}",
  "sourcePath": "A:/VKZV/shared-mobility/contracts/CarBooking.sol",
  "compiler": {
    "name": "solc",
    "version": "0.5.16+commit.9c3226ce.Emscripten.clang"
  },
  "schemaVersion": "3.3.2",
  "updatedAt": "2020-12-17T17:52:35.658Z",
  "networkType": "ethereum",
  "devdoc": {
    "methods": {}
  },
  "userdoc": {
    "methods": {}
  }
}