{
  "contractName": "CarBooking",
  "abi": [
    {
      "inputs": [],
      "payable": false,
      "stateMutability": "nonpayable",
      "type": "constructor"
    },
    {
      "constant": true,
      "inputs": [],
      "name": "bookingCount",
      "outputs": [
        {
          "internalType": "uint256",
          "name": "",
          "type": "uint256"
        }
      ],
      "payable": false,
      "stateMutability": "view",
      "type": "function"
    },
    {
      "constant": true,
      "inputs": [
        {
          "internalType": "uint256",
          "name": "",
          "type": "uint256"
        }
      ],
      "name": "bookings",
      "outputs": [
        {
          "internalType": "uint256",
          "name": "_id",
          "type": "uint256"
        },
        {
          "internalType": "string",
          "name": "_carOwner",
          "type": "string"
        },
        {
          "internalType": "string",
          "name": "_user",
          "type": "string"
        },
        {
          "internalType": "string",
          "name": "_rentStart",
          "type": "string"
        },
        {
          "internalType": "string",
          "name": "_rentEnd",
          "type": "string"
        },
        {
          "internalType": "uint256",
          "name": "_rentCost",
          "type": "uint256"
        }
      ],
      "payable": false,
      "stateMutability": "view",
      "type": "function"
    },
    {
      "constant": false,
      "inputs": [
        {
          "internalType": "string",
          "name": "_carOwner",
          "type": "string"
        },
        {
          "internalType": "string",
          "name": "_user",
          "type": "string"
        },
        {
          "internalType": "string",
          "name": "_rentStart",
          "type": "string"
        },
        {
          "internalType": "string",
          "name": "_rentEnd",
          "type": "string"
        },
        {
          "internalType": "uint256",
          "name": "_rentCost",
          "type": "uint256"
        }
      ],
      "name": "confirmBooking",
      "outputs": [],
      "payable": false,
      "stateMutability": "nonpayable",
      "type": "function"
    },
    {
      "constant": true,
      "inputs": [],
      "name": "getBookings",
      "outputs": [
        {
          "components": [
            {
              "internalType": "uint256",
              "name": "_id",
              "type": "uint256"
            },
            {
              "internalType": "string",
              "name": "_carOwner",
              "type": "string"
            },
            {
              "internalType": "string",
              "name": "_user",
              "type": "string"
            },
            {
              "internalType": "string",
              "name": "_rentStart",
              "type": "string"
            },
            {
              "internalType": "string",
              "name": "_rentEnd",
              "type": "string"
            },
            {
              "internalType": "uint256",
              "name": "_rentCost",
              "type": "uint256"
            }
          ],
          "internalType": "struct CarBooking.Booking[]",
          "name": "",
          "type": "tuple[]"
        }
      ],
      "payable": false,
      "stateMutability": "view",
      "type": "function"
    }
  ],
  "bytecode": "0x60806040526000805534801561001457600080fd5b5033600260006101000a81548173ffffffffffffffffffffffffffffffffffffffff021916908373ffffffffffffffffffffffffffffffffffffffff160217905550610dd3806100656000396000f3fe608060405234801561001057600080fd5b506004361061004c5760003560e01c80631dab301e146100515780635b085fa7146100865780636d759172146100a2578063955c8420146100c0575b600080fd5b61006b600480360361006691908101906109c3565b6100de565b60405161007d96959493929190610be0565b60405180910390f35b6100a0600480360361009b91908101906108ec565b61037a565b005b6100aa610457565b6040516100b79190610bc5565b60405180910390f35b6100c861045d565b6040516100d59190610ba3565b60405180910390f35b6001602052806000526040600020600091509050806000015490806001018054600181600116156101000203166002900480601f0160208091040260200160405190810160405280929190818152602001828054600181600116156101000203166002900480156101905780601f1061016557610100808354040283529160200191610190565b820191906000526020600020905b81548152906001019060200180831161017357829003601f168201915b505050505090806002018054600181600116156101000203166002900480601f01602080910402602001604051908101604052809291908181526020018280546001816001161561010002031660029004801561022e5780601f106102035761010080835404028352916020019161022e565b820191906000526020600020905b81548152906001019060200180831161021157829003601f168201915b505050505090806003018054600181600116156101000203166002900480601f0160208091040260200160405190810160405280929190818152602001828054600181600116156101000203166002900480156102cc5780601f106102a1576101008083540402835291602001916102cc565b820191906000526020600020905b8154815290600101906020018083116102af57829003601f168201915b505050505090806004018054600181600116156101000203166002900480601f01602080910402602001604051908101604052809291908181526020018280546001816001161561010002031660029004801561036a5780601f1061033f5761010080835404028352916020019161036a565b820191906000526020600020905b81548152906001019060200180831161034d57829003601f168201915b5050505050908060050154905086565b610382610795565b6040518060c0016040528060005481526020018681526020018581526020018481526020018381526020018281525060016000805481526020019081526020016000206000820151816000015560208201518160010190805190602001906103eb9291906107a8565b5060408201518160020190805190602001906104089291906107a8565b5060608201518160030190805190602001906104259291906107a8565b5060808201518160040190805190602001906104429291906107a8565b5060a082015181600501559050505050505050565b60005481565b60608060005460405190808252806020026020018201604052801561049c57816020015b610489610828565b8152602001906001900390816104815790505b50905060008090505b60005481101561078d57600160008281526020019081526020016000206040518060c001604052908160008201548152602001600182018054600181600116156101000203166002900480601f0160208091040260200160405190810160405280929190818152602001828054600181600116156101000203166002900480156105705780601f1061054557610100808354040283529160200191610570565b820191906000526020600020905b81548152906001019060200180831161055357829003601f168201915b50505050508152602001600282018054600181600116156101000203166002900480601f0160208091040260200160405190810160405280929190818152602001828054600181600116156101000203166002900480156106125780601f106105e757610100808354040283529160200191610612565b820191906000526020600020905b8154815290600101906020018083116105f557829003601f168201915b50505050508152602001600382018054600181600116156101000203166002900480601f0160208091040260200160405190810160405280929190818152602001828054600181600116156101000203166002900480156106b45780601f10610689576101008083540402835291602001916106b4565b820191906000526020600020905b81548152906001019060200180831161069757829003601f168201915b50505050508152602001600482018054600181600116156101000203166002900480601f0160208091040260200160405190810160405280929190818152602001828054600181600116156101000203166002900480156107565780601f1061072b57610100808354040283529160200191610756565b820191906000526020600020905b81548152906001019060200180831161073957829003601f168201915b5050505050815260200160058201548152505082828151811061077557fe5b602002602001018190525080806001019150506104a5565b508091505090565b6000808154809291906001019190505550565b828054600181600116156101000203166002900490600052602060002090601f016020900481019282601f106107e957805160ff1916838001178555610817565b82800160010185558215610817579182015b828111156108165782518255916020019190600101906107fb565b5b509050610824919061085e565b5090565b6040518060c001604052806000815260200160608152602001606081526020016060815260200160608152602001600081525090565b61088091905b8082111561087c576000816000905550600101610864565b5090565b90565b600082601f83011261089457600080fd5b81356108a76108a282610c8a565b610c5d565b915080825260208301602083018583830111156108c357600080fd5b6108ce838284610d26565b50505092915050565b6000813590506108e681610d79565b92915050565b600080600080600060a0868803121561090457600080fd5b600086013567ffffffffffffffff81111561091e57600080fd5b61092a88828901610883565b955050602086013567ffffffffffffffff81111561094757600080fd5b61095388828901610883565b945050604086013567ffffffffffffffff81111561097057600080fd5b61097c88828901610883565b935050606086013567ffffffffffffffff81111561099957600080fd5b6109a588828901610883565b92505060806109b6888289016108d7565b9150509295509295909350565b6000602082840312156109d557600080fd5b60006109e3848285016108d7565b91505092915050565b60006109f88383610ae7565b905092915050565b6000610a0b82610cc6565b610a158185610ce9565b935083602082028501610a2785610cb6565b8060005b85811015610a635784840389528151610a4485826109ec565b9450610a4f83610cdc565b925060208a01995050600181019050610a2b565b50829750879550505050505092915050565b6000610a8082610cd1565b610a8a8185610cfa565b9350610a9a818560208601610d35565b610aa381610d68565b840191505092915050565b6000610ab982610cd1565b610ac38185610d0b565b9350610ad3818560208601610d35565b610adc81610d68565b840191505092915050565b600060c083016000830151610aff6000860182610b85565b5060208301518482036020860152610b178282610a75565b91505060408301518482036040860152610b318282610a75565b91505060608301518482036060860152610b4b8282610a75565b91505060808301518482036080860152610b658282610a75565b91505060a0830151610b7a60a0860182610b85565b508091505092915050565b610b8e81610d1c565b82525050565b610b9d81610d1c565b82525050565b60006020820190508181036000830152610bbd8184610a00565b905092915050565b6000602082019050610bda6000830184610b94565b92915050565b600060c082019050610bf56000830189610b94565b8181036020830152610c078188610aae565b90508181036040830152610c1b8187610aae565b90508181036060830152610c2f8186610aae565b90508181036080830152610c438185610aae565b9050610c5260a0830184610b94565b979650505050505050565b6000604051905081810181811067ffffffffffffffff82111715610c8057600080fd5b8060405250919050565b600067ffffffffffffffff821115610ca157600080fd5b601f19601f8301169050602081019050919050565b6000819050602082019050919050565b600081519050919050565b600081519050919050565b6000602082019050919050565b600082825260208201905092915050565b600082825260208201905092915050565b600082825260208201905092915050565b6000819050919050565b82818337600083830152505050565b60005b83811015610d53578082015181840152602081019050610d38565b83811115610d62576000848401525b50505050565b6000601f19601f8301169050919050565b610d8281610d1c565b8114610d8d57600080fd5b5056fea365627a7a7231582021cd438b251f57c446970aabff4baf938be65af2c200d78ac1316c4a201056b56c6578706572696d656e74616cf564736f6c63430005100040",
  "source": "// SPDX-License-Identifier: UNLICENSED\r\npragma solidity >=0.4.22 <0.8.0;\r\npragma experimental ABIEncoderV2;\r\n\r\ncontract CarBooking{\r\n    uint256 public bookingCount = 0;\r\n    mapping(uint => Booking) public bookings;\r\n    address private owner;\r\n    \r\n    struct Booking {\r\n        uint _id;\r\n        string _carOwner;\r\n        string _user;\r\n        string _rentStart;\r\n        string _rentEnd;\r\n        uint _rentCost;\r\n    }\r\n    \r\n    constructor() public{\r\n        owner = msg.sender; // owner is contract deployer\r\n    }\r\n    \r\n    function confirmBooking(\r\n        string memory _carOwner,\r\n        string memory _user,\r\n        string memory _rentStart,\r\n        string memory _rentEnd,\r\n        uint _rentCost\r\n        ) \r\n        public {\r\n        incrementCount();\r\n        bookings[bookingCount] = Booking(bookingCount, _carOwner, _user, _rentStart, _rentEnd, _rentCost);\r\n    }\r\n    \r\n    function incrementCount() internal {\r\n        bookingCount++;\r\n    }\r\n    \r\n    function getBookings() public view returns (Booking[] memory){\r\n        Booking[] memory bookings_array = new Booking[](bookingCount);\r\n        for (uint i = 0; i < bookingCount; i++) {\r\n            bookings_array[i] = bookings[i];\r\n        }\r\n        \r\n        return bookings_array;\r\n    }\r\n}",
  "sourcePath": "A:/VKZV/shared-mobility/contracts/CarBooking.sol",
  "compiler": {
    "name": "solc",
    "version": "0.5.16+commit.9c3226ce.Emscripten.clang"
  },
  "schemaVersion": "3.3.2",
  "updatedAt": "2020-12-15T21:59:18.000Z",
  "networkType": "ethereum",
  "devdoc": {
    "methods": {}
  },
  "userdoc": {
    "methods": {}
  }
}