{
  "contractName": "CarRegistration",
  "abi": [
    {
      "constant": true,
      "inputs": [
        {
          "internalType": "uint256",
          "name": "",
          "type": "uint256"
        }
      ],
      "name": "cars",
      "outputs": [
        {
          "internalType": "uint256",
          "name": "_id",
          "type": "uint256"
        },
        {
          "internalType": "string",
          "name": "_name",
          "type": "string"
        },
        {
          "internalType": "uint256",
          "name": "_power",
          "type": "uint256"
        },
        {
          "internalType": "uint256",
          "name": "_acc",
          "type": "uint256"
        },
        {
          "internalType": "string",
          "name": "_drive",
          "type": "string"
        },
        {
          "internalType": "string",
          "name": "_trans",
          "type": "string"
        },
        {
          "internalType": "uint256",
          "name": "_year",
          "type": "uint256"
        },
        {
          "internalType": "string",
          "name": "_type",
          "type": "string"
        },
        {
          "internalType": "string",
          "name": "_owner",
          "type": "string"
        },
        {
          "internalType": "string",
          "name": "_location",
          "type": "string"
        },
        {
          "internalType": "uint256",
          "name": "_price",
          "type": "uint256"
        },
        {
          "internalType": "string",
          "name": "_pic",
          "type": "string"
        }
      ],
      "payable": false,
      "stateMutability": "view",
      "type": "function"
    },
    {
      "constant": true,
      "inputs": [],
      "name": "carsCount",
      "outputs": [
        {
          "internalType": "uint256",
          "name": "",
          "type": "uint256"
        }
      ],
      "payable": false,
      "stateMutability": "view",
      "type": "function"
    },
    {
      "constant": false,
      "inputs": [
        {
          "internalType": "string",
          "name": "_name",
          "type": "string"
        },
        {
          "internalType": "uint256",
          "name": "_power",
          "type": "uint256"
        },
        {
          "internalType": "uint256",
          "name": "_acc",
          "type": "uint256"
        },
        {
          "internalType": "string",
          "name": "_drive",
          "type": "string"
        },
        {
          "internalType": "string",
          "name": "_trans",
          "type": "string"
        },
        {
          "internalType": "uint256",
          "name": "_year",
          "type": "uint256"
        },
        {
          "internalType": "string",
          "name": "_type",
          "type": "string"
        },
        {
          "internalType": "string",
          "name": "_owner",
          "type": "string"
        },
        {
          "internalType": "string",
          "name": "_location",
          "type": "string"
        },
        {
          "internalType": "uint256",
          "name": "_price",
          "type": "uint256"
        },
        {
          "internalType": "string",
          "name": "_pic",
          "type": "string"
        }
      ],
      "name": "addCar",
      "outputs": [],
      "payable": false,
      "stateMutability": "nonpayable",
      "type": "function"
    },
    {
      "constant": true,
      "inputs": [],
      "name": "getCars",
      "outputs": [
        {
          "components": [
            {
              "internalType": "uint256",
              "name": "_id",
              "type": "uint256"
            },
            {
              "internalType": "string",
              "name": "_name",
              "type": "string"
            },
            {
              "internalType": "uint256",
              "name": "_power",
              "type": "uint256"
            },
            {
              "internalType": "uint256",
              "name": "_acc",
              "type": "uint256"
            },
            {
              "internalType": "string",
              "name": "_drive",
              "type": "string"
            },
            {
              "internalType": "string",
              "name": "_trans",
              "type": "string"
            },
            {
              "internalType": "uint256",
              "name": "_year",
              "type": "uint256"
            },
            {
              "internalType": "string",
              "name": "_type",
              "type": "string"
            },
            {
              "internalType": "string",
              "name": "_owner",
              "type": "string"
            },
            {
              "internalType": "string",
              "name": "_location",
              "type": "string"
            },
            {
              "internalType": "uint256",
              "name": "_price",
              "type": "uint256"
            },
            {
              "internalType": "string",
              "name": "_pic",
              "type": "string"
            }
          ],
          "internalType": "struct CarRegistration.Car[]",
          "name": "",
          "type": "tuple[]"
        }
      ],
      "payable": false,
      "stateMutability": "view",
      "type": "function"
    }
  ],
  "bytecode": "0x6080604052600360005534801561001557600080fd5b5061144e806100256000396000f3fe608060405234801561001057600080fd5b506004361061004c5760003560e01c806317c3928614610051578063a74db99a1461006f578063c3d97a271461008b578063f7746e36146100a9575b600080fd5b6100596100e4565b60405161006691906111b0565b60405180910390f35b61008960048036036100849190810190610da8565b610621565b005b6100936107ab565b6040516100a091906111d2565b60405180910390f35b6100c360048036036100be9190810190610f40565b6107b1565b6040516100db9c9b9a999897969594939291906111ed565b60405180910390f35b60608060005460405190808252806020026020018201604052801561012357816020015b610110610c39565b8152602001906001900390816101085790505b50905060008090505b60005481101561061957600160008281526020019081526020016000206040518061018001604052908160008201548152602001600182018054600181600116156101000203166002900480601f0160208091040260200160405190810160405280929190818152602001828054600181600116156101000203166002900480156101f85780601f106101cd576101008083540402835291602001916101f8565b820191906000526020600020905b8154815290600101906020018083116101db57829003601f168201915b505050505081526020016002820154815260200160038201548152602001600482018054600181600116156101000203166002900480601f0160208091040260200160405190810160405280929190818152602001828054600181600116156101000203166002900480156102ae5780601f10610283576101008083540402835291602001916102ae565b820191906000526020600020905b81548152906001019060200180831161029157829003601f168201915b50505050508152602001600582018054600181600116156101000203166002900480601f0160208091040260200160405190810160405280929190818152602001828054600181600116156101000203166002900480156103505780601f1061032557610100808354040283529160200191610350565b820191906000526020600020905b81548152906001019060200180831161033357829003601f168201915b5050505050815260200160068201548152602001600782018054600181600116156101000203166002900480601f0160208091040260200160405190810160405280929190818152602001828054600181600116156101000203166002900480156103fc5780601f106103d1576101008083540402835291602001916103fc565b820191906000526020600020905b8154815290600101906020018083116103df57829003601f168201915b50505050508152602001600882018054600181600116156101000203166002900480601f01602080910402602001604051908101604052809291908181526020018280546001816001161561010002031660029004801561049e5780601f106104735761010080835404028352916020019161049e565b820191906000526020600020905b81548152906001019060200180831161048157829003601f168201915b50505050508152602001600982018054600181600116156101000203166002900480601f0160208091040260200160405190810160405280929190818152602001828054600181600116156101000203166002900480156105405780601f1061051557610100808354040283529160200191610540565b820191906000526020600020905b81548152906001019060200180831161052357829003601f168201915b50505050508152602001600a8201548152602001600b82018054600181600116156101000203166002900480601f0160208091040260200160405190810160405280929190818152602001828054600181600116156101000203166002900480156105ec5780601f106105c1576101008083540402835291602001916105ec565b820191906000526020600020905b8154815290600101906020018083116105cf57829003601f168201915b50505050508152505082828151811061060157fe5b6020026020010181905250808060010191505061012c565b508091505090565b600080815480929190600101919050555060405180610180016040528060005481526020018c81526020018b81526020018a81526020018981526020018881526020018781526020018681526020018581526020018481526020018381526020018281525060016000805481526020019081526020016000206000820151816000015560208201518160010190805190602001906106c0929190610c9a565b50604082015181600201556060820151816003015560808201518160040190805190602001906106f1929190610c9a565b5060a082015181600501908051906020019061070e929190610c9a565b5060c0820151816006015560e0820151816007019080519060200190610735929190610c9a565b50610100820151816008019080519060200190610753929190610c9a565b50610120820151816009019080519060200190610771929190610c9a565b5061014082015181600a015561016082015181600b01908051906020019061079a929190610c9a565b509050505050505050505050505050565b60005481565b6001602052806000526040600020600091509050806000015490806001018054600181600116156101000203166002900480601f0160208091040260200160405190810160405280929190818152602001828054600181600116156101000203166002900480156108635780601f1061083857610100808354040283529160200191610863565b820191906000526020600020905b81548152906001019060200180831161084657829003601f168201915b505050505090806002015490806003015490806004018054600181600116156101000203166002900480601f01602080910402602001604051908101604052809291908181526020018280546001816001161561010002031660029004801561090d5780601f106108e25761010080835404028352916020019161090d565b820191906000526020600020905b8154815290600101906020018083116108f057829003601f168201915b505050505090806005018054600181600116156101000203166002900480601f0160208091040260200160405190810160405280929190818152602001828054600181600116156101000203166002900480156109ab5780601f10610980576101008083540402835291602001916109ab565b820191906000526020600020905b81548152906001019060200180831161098e57829003601f168201915b505050505090806006015490806007018054600181600116156101000203166002900480601f016020809104026020016040519081016040528092919081815260200182805460018160011615610100020316600290048015610a4f5780601f10610a2457610100808354040283529160200191610a4f565b820191906000526020600020905b815481529060010190602001808311610a3257829003601f168201915b505050505090806008018054600181600116156101000203166002900480601f016020809104026020016040519081016040528092919081815260200182805460018160011615610100020316600290048015610aed5780601f10610ac257610100808354040283529160200191610aed565b820191906000526020600020905b815481529060010190602001808311610ad057829003601f168201915b505050505090806009018054600181600116156101000203166002900480601f016020809104026020016040519081016040528092919081815260200182805460018160011615610100020316600290048015610b8b5780601f10610b6057610100808354040283529160200191610b8b565b820191906000526020600020905b815481529060010190602001808311610b6e57829003601f168201915b50505050509080600a01549080600b018054600181600116156101000203166002900480601f016020809104026020016040519081016040528092919081815260200182805460018160011615610100020316600290048015610c2f5780601f10610c0457610100808354040283529160200191610c2f565b820191906000526020600020905b815481529060010190602001808311610c1257829003601f168201915b505050505090508c565b6040518061018001604052806000815260200160608152602001600081526020016000815260200160608152602001606081526020016000815260200160608152602001606081526020016060815260200160008152602001606081525090565b828054600181600116156101000203166002900490600052602060002090601f016020900481019282601f10610cdb57805160ff1916838001178555610d09565b82800160010185558215610d09579182015b82811115610d08578251825591602001919060010190610ced565b5b509050610d169190610d1a565b5090565b610d3c91905b80821115610d38576000816000905550600101610d20565b5090565b90565b600082601f830112610d5057600080fd5b8135610d63610d5e82611305565b6112d8565b91508082526020830160208301858383011115610d7f57600080fd5b610d8a8382846113a1565b50505092915050565b600081359050610da2816113f4565b92915050565b60008060008060008060008060008060006101608c8e031215610dca57600080fd5b60008c013567ffffffffffffffff811115610de457600080fd5b610df08e828f01610d3f565b9b50506020610e018e828f01610d93565b9a50506040610e128e828f01610d93565b99505060608c013567ffffffffffffffff811115610e2f57600080fd5b610e3b8e828f01610d3f565b98505060808c013567ffffffffffffffff811115610e5857600080fd5b610e648e828f01610d3f565b97505060a0610e758e828f01610d93565b96505060c08c013567ffffffffffffffff811115610e9257600080fd5b610e9e8e828f01610d3f565b95505060e08c013567ffffffffffffffff811115610ebb57600080fd5b610ec78e828f01610d3f565b9450506101008c013567ffffffffffffffff811115610ee557600080fd5b610ef18e828f01610d3f565b935050610120610f038e828f01610d93565b9250506101408c013567ffffffffffffffff811115610f2157600080fd5b610f2d8e828f01610d3f565b9150509295989b509295989b9093969950565b600060208284031215610f5257600080fd5b6000610f6084828501610d93565b91505092915050565b6000610f758383611064565b905092915050565b6000610f8882611341565b610f928185611364565b935083602082028501610fa485611331565b8060005b85811015610fe05784840389528151610fc18582610f69565b9450610fcc83611357565b925060208a01995050600181019050610fa8565b50829750879550505050505092915050565b6000610ffd8261134c565b6110078185611375565b93506110178185602086016113b0565b611020816113e3565b840191505092915050565b60006110368261134c565b6110408185611386565b93506110508185602086016113b0565b611059816113e3565b840191505092915050565b60006101808301600083015161107d6000860182611192565b50602083015184820360208601526110958282610ff2565b91505060408301516110aa6040860182611192565b5060608301516110bd6060860182611192565b50608083015184820360808601526110d58282610ff2565b91505060a083015184820360a08601526110ef8282610ff2565b91505060c083015161110460c0860182611192565b5060e083015184820360e086015261111c8282610ff2565b9150506101008301518482036101008601526111388282610ff2565b9150506101208301518482036101208601526111548282610ff2565b91505061014083015161116b610140860182611192565b506101608301518482036101608601526111858282610ff2565b9150508091505092915050565b61119b81611397565b82525050565b6111aa81611397565b82525050565b600060208201905081810360008301526111ca8184610f7d565b905092915050565b60006020820190506111e760008301846111a1565b92915050565b600061018082019050611203600083018f6111a1565b8181036020830152611215818e61102b565b9050611224604083018d6111a1565b611231606083018c6111a1565b8181036080830152611243818b61102b565b905081810360a0830152611257818a61102b565b905061126660c08301896111a1565b81810360e0830152611278818861102b565b905081810361010083015261128d818761102b565b90508181036101208301526112a2818661102b565b90506112b26101408301856111a1565b8181036101608301526112c5818461102b565b90509d9c50505050505050505050505050565b6000604051905081810181811067ffffffffffffffff821117156112fb57600080fd5b8060405250919050565b600067ffffffffffffffff82111561131c57600080fd5b601f19601f8301169050602081019050919050565b6000819050602082019050919050565b600081519050919050565b600081519050919050565b6000602082019050919050565b600082825260208201905092915050565b600082825260208201905092915050565b600082825260208201905092915050565b6000819050919050565b82818337600083830152505050565b60005b838110156113ce5780820151818401526020810190506113b3565b838111156113dd576000848401525b50505050565b6000601f19601f8301169050919050565b6113fd81611397565b811461140857600080fd5b5056fea365627a7a72315820410b9b98e5afe1ade446b2a1b8da9d99c9c2d06ca02d99f3a93878d9bcbf659d6c6578706572696d656e74616cf564736f6c63430005100040",
  "source": "// SPDX-License-Identifier: UNLICENSED\r\npragma solidity >=0.4.22 <0.8.0;\r\n// used for mapping -> array ( getCars() )\r\npragma experimental ABIEncoderV2;\r\n\r\ncontract CarRegistration{\r\n    uint256 public carsCount = 3;\r\n    mapping(uint => Car) public cars;   \r\n    \r\n    struct Car {\r\n        uint _id;\r\n        string _name;\r\n        uint _power;\r\n        uint _acc;\r\n        string _drive;\r\n        string _trans;\r\n        uint _year;\r\n        string _type;\r\n        string _owner;\r\n        string _location;\r\n        uint _price;\r\n        string _pic;\r\n    }\r\n       \r\n    function addCar(\r\n        string memory _name,\r\n        uint _power,\r\n        uint _acc,\r\n        string memory _drive,\r\n        string memory _trans,\r\n        uint _year,\r\n        string memory _type,\r\n        string memory _owner,\r\n        string memory _location,\r\n        uint _price,\r\n        string memory _pic\r\n        ) \r\n        public {\r\n        carsCount++;\r\n        cars[carsCount] = Car(carsCount, _name, _power, _acc, _drive,\r\n                                _trans, _year, _type, _owner, _location,\r\n                                _price, _pic);\r\n    }\r\n\r\n    function getCars() public view returns (Car[] memory){\r\n        Car[] memory cars_array = new Car[](carsCount);\r\n        for (uint i = 0; i < carsCount; i++) {\r\n            cars_array[i] = cars[i];\r\n        }\r\n    \r\n        return cars_array;\r\n    }\r\n    \r\n}",
  "sourcePath": "A:/VKZV/shared-mobility/contracts/CarRegistration.sol",
  "compiler": {
    "name": "solc",
    "version": "0.5.16+commit.9c3226ce.Emscripten.clang"
  },
  "schemaVersion": "3.3.2",
  "updatedAt": "2020-12-16T15:26:34.475Z",
  "networkType": "ethereum",
  "devdoc": {
    "methods": {}
  },
  "userdoc": {
    "methods": {}
  }
}